{
  "_format": "hh-sol-artifact-1",
  "contractName": "LazyNFT",
  "sourceName": "contracts/Lazy.sol",
  "abi": [
    {
      "inputs": [
        {
          "internalType": "address payable",
          "name": "minter",
          "type": "address"
        }
      ],
      "stateMutability": "nonpayable",
      "type": "constructor"
    },
    {
      "anonymous": false,
      "inputs": [
        {
          "indexed": true,
          "internalType": "address",
          "name": "owner",
          "type": "address"
        },
        {
          "indexed": true,
          "internalType": "address",
          "name": "approved",
          "type": "address"
        },
        {
          "indexed": true,
          "internalType": "uint256",
          "name": "tokenId",
          "type": "uint256"
        }
      ],
      "name": "Approval",
      "type": "event"
    },
    {
      "anonymous": false,
      "inputs": [
        {
          "indexed": true,
          "internalType": "address",
          "name": "owner",
          "type": "address"
        },
        {
          "indexed": true,
          "internalType": "address",
          "name": "operator",
          "type": "address"
        },
        {
          "indexed": false,
          "internalType": "bool",
          "name": "approved",
          "type": "bool"
        }
      ],
      "name": "ApprovalForAll",
      "type": "event"
    },
    {
      "anonymous": false,
      "inputs": [
        {
          "indexed": true,
          "internalType": "bytes32",
          "name": "role",
          "type": "bytes32"
        },
        {
          "indexed": true,
          "internalType": "bytes32",
          "name": "previousAdminRole",
          "type": "bytes32"
        },
        {
          "indexed": true,
          "internalType": "bytes32",
          "name": "newAdminRole",
          "type": "bytes32"
        }
      ],
      "name": "RoleAdminChanged",
      "type": "event"
    },
    {
      "anonymous": false,
      "inputs": [
        {
          "indexed": true,
          "internalType": "bytes32",
          "name": "role",
          "type": "bytes32"
        },
        {
          "indexed": true,
          "internalType": "address",
          "name": "account",
          "type": "address"
        },
        {
          "indexed": true,
          "internalType": "address",
          "name": "sender",
          "type": "address"
        }
      ],
      "name": "RoleGranted",
      "type": "event"
    },
    {
      "anonymous": false,
      "inputs": [
        {
          "indexed": true,
          "internalType": "bytes32",
          "name": "role",
          "type": "bytes32"
        },
        {
          "indexed": true,
          "internalType": "address",
          "name": "account",
          "type": "address"
        },
        {
          "indexed": true,
          "internalType": "address",
          "name": "sender",
          "type": "address"
        }
      ],
      "name": "RoleRevoked",
      "type": "event"
    },
    {
      "anonymous": false,
      "inputs": [
        {
          "indexed": true,
          "internalType": "address",
          "name": "from",
          "type": "address"
        },
        {
          "indexed": true,
          "internalType": "address",
          "name": "to",
          "type": "address"
        },
        {
          "indexed": true,
          "internalType": "uint256",
          "name": "tokenId",
          "type": "uint256"
        }
      ],
      "name": "Transfer",
      "type": "event"
    },
    {
      "inputs": [],
      "name": "DEFAULT_ADMIN_ROLE",
      "outputs": [
        {
          "internalType": "bytes32",
          "name": "",
          "type": "bytes32"
        }
      ],
      "stateMutability": "view",
      "type": "function"
    },
    {
      "inputs": [],
      "name": "MINTER_ROLE",
      "outputs": [
        {
          "internalType": "bytes32",
          "name": "",
          "type": "bytes32"
        }
      ],
      "stateMutability": "view",
      "type": "function"
    },
    {
      "inputs": [
        {
          "internalType": "address",
          "name": "to",
          "type": "address"
        },
        {
          "internalType": "uint256",
          "name": "tokenId",
          "type": "uint256"
        }
      ],
      "name": "approve",
      "outputs": [],
      "stateMutability": "nonpayable",
      "type": "function"
    },
    {
      "inputs": [],
      "name": "availableToWithdraw",
      "outputs": [
        {
          "internalType": "uint256",
          "name": "",
          "type": "uint256"
        }
      ],
      "stateMutability": "view",
      "type": "function"
    },
    {
      "inputs": [
        {
          "internalType": "address",
          "name": "owner",
          "type": "address"
        }
      ],
      "name": "balanceOf",
      "outputs": [
        {
          "internalType": "uint256",
          "name": "",
          "type": "uint256"
        }
      ],
      "stateMutability": "view",
      "type": "function"
    },
    {
      "inputs": [
        {
          "internalType": "uint256",
          "name": "tokenId",
          "type": "uint256"
        }
      ],
      "name": "getApproved",
      "outputs": [
        {
          "internalType": "address",
          "name": "",
          "type": "address"
        }
      ],
      "stateMutability": "view",
      "type": "function"
    },
    {
      "inputs": [
        {
          "internalType": "bytes32",
          "name": "role",
          "type": "bytes32"
        }
      ],
      "name": "getRoleAdmin",
      "outputs": [
        {
          "internalType": "bytes32",
          "name": "",
          "type": "bytes32"
        }
      ],
      "stateMutability": "view",
      "type": "function"
    },
    {
      "inputs": [
        {
          "internalType": "bytes32",
          "name": "role",
          "type": "bytes32"
        },
        {
          "internalType": "address",
          "name": "account",
          "type": "address"
        }
      ],
      "name": "grantRole",
      "outputs": [],
      "stateMutability": "nonpayable",
      "type": "function"
    },
    {
      "inputs": [
        {
          "internalType": "bytes32",
          "name": "role",
          "type": "bytes32"
        },
        {
          "internalType": "address",
          "name": "account",
          "type": "address"
        }
      ],
      "name": "hasRole",
      "outputs": [
        {
          "internalType": "bool",
          "name": "",
          "type": "bool"
        }
      ],
      "stateMutability": "view",
      "type": "function"
    },
    {
      "inputs": [
        {
          "internalType": "address",
          "name": "owner",
          "type": "address"
        },
        {
          "internalType": "address",
          "name": "operator",
          "type": "address"
        }
      ],
      "name": "isApprovedForAll",
      "outputs": [
        {
          "internalType": "bool",
          "name": "",
          "type": "bool"
        }
      ],
      "stateMutability": "view",
      "type": "function"
    },
    {
      "inputs": [],
      "name": "name",
      "outputs": [
        {
          "internalType": "string",
          "name": "",
          "type": "string"
        }
      ],
      "stateMutability": "view",
      "type": "function"
    },
    {
      "inputs": [
        {
          "internalType": "uint256",
          "name": "tokenId",
          "type": "uint256"
        }
      ],
      "name": "ownerOf",
      "outputs": [
        {
          "internalType": "address",
          "name": "",
          "type": "address"
        }
      ],
      "stateMutability": "view",
      "type": "function"
    },
    {
      "inputs": [
        {
          "internalType": "address",
          "name": "redeemer",
          "type": "address"
        },
        {
          "components": [
            {
              "internalType": "uint256",
              "name": "tokenId",
              "type": "uint256"
            },
            {
              "internalType": "uint256",
              "name": "minPrice",
              "type": "uint256"
            },
            {
              "internalType": "string",
              "name": "uri",
              "type": "string"
            }
          ],
          "internalType": "struct LazyNFT.NFTVoucher",
          "name": "voucher",
          "type": "tuple"
        },
        {
          "internalType": "bytes",
          "name": "signature",
          "type": "bytes"
        }
      ],
      "name": "redeem",
      "outputs": [
        {
          "internalType": "uint256",
          "name": "",
          "type": "uint256"
        }
      ],
      "stateMutability": "payable",
      "type": "function"
    },
    {
      "inputs": [
        {
          "internalType": "bytes32",
          "name": "role",
          "type": "bytes32"
        },
        {
          "internalType": "address",
          "name": "account",
          "type": "address"
        }
      ],
      "name": "renounceRole",
      "outputs": [],
      "stateMutability": "nonpayable",
      "type": "function"
    },
    {
      "inputs": [
        {
          "internalType": "bytes32",
          "name": "role",
          "type": "bytes32"
        },
        {
          "internalType": "address",
          "name": "account",
          "type": "address"
        }
      ],
      "name": "revokeRole",
      "outputs": [],
      "stateMutability": "nonpayable",
      "type": "function"
    },
    {
      "inputs": [
        {
          "internalType": "address",
          "name": "from",
          "type": "address"
        },
        {
          "internalType": "address",
          "name": "to",
          "type": "address"
        },
        {
          "internalType": "uint256",
          "name": "tokenId",
          "type": "uint256"
        }
      ],
      "name": "safeTransferFrom",
      "outputs": [],
      "stateMutability": "nonpayable",
      "type": "function"
    },
    {
      "inputs": [
        {
          "internalType": "address",
          "name": "from",
          "type": "address"
        },
        {
          "internalType": "address",
          "name": "to",
          "type": "address"
        },
        {
          "internalType": "uint256",
          "name": "tokenId",
          "type": "uint256"
        },
        {
          "internalType": "bytes",
          "name": "_data",
          "type": "bytes"
        }
      ],
      "name": "safeTransferFrom",
      "outputs": [],
      "stateMutability": "nonpayable",
      "type": "function"
    },
    {
      "inputs": [
        {
          "internalType": "address",
          "name": "operator",
          "type": "address"
        },
        {
          "internalType": "bool",
          "name": "approved",
          "type": "bool"
        }
      ],
      "name": "setApprovalForAll",
      "outputs": [],
      "stateMutability": "nonpayable",
      "type": "function"
    },
    {
      "inputs": [
        {
          "internalType": "bytes4",
          "name": "interfaceId",
          "type": "bytes4"
        }
      ],
      "name": "supportsInterface",
      "outputs": [
        {
          "internalType": "bool",
          "name": "",
          "type": "bool"
        }
      ],
      "stateMutability": "view",
      "type": "function"
    },
    {
      "inputs": [],
      "name": "symbol",
      "outputs": [
        {
          "internalType": "string",
          "name": "",
          "type": "string"
        }
      ],
      "stateMutability": "view",
      "type": "function"
    },
    {
      "inputs": [
        {
          "internalType": "uint256",
          "name": "tokenId",
          "type": "uint256"
        }
      ],
      "name": "tokenURI",
      "outputs": [
        {
          "internalType": "string",
          "name": "",
          "type": "string"
        }
      ],
      "stateMutability": "view",
      "type": "function"
    },
    {
      "inputs": [
        {
          "internalType": "address",
          "name": "from",
          "type": "address"
        },
        {
          "internalType": "address",
          "name": "to",
          "type": "address"
        },
        {
          "internalType": "uint256",
          "name": "tokenId",
          "type": "uint256"
        }
      ],
      "name": "transferFrom",
      "outputs": [],
      "stateMutability": "nonpayable",
      "type": "function"
    },
    {
      "inputs": [],
      "name": "withdraw",
      "outputs": [],
      "stateMutability": "nonpayable",
      "type": "function"
    }
  ],
  "bytecode": "0x6101406040523480156200001257600080fd5b5060405162002dc838038062002dc8833981016040819052620000359162000308565b6040518060400160405280600f81526020016e2630bd3ca7232a16ab37bab1b432b960891b815250604051806040016040528060018152602001603160f81b8152506040518060400160405280600781526020016613185e9e53919560ca1b815250604051806040016040528060038152602001622620ad60e91b8152508160009080519060200190620000cb92919062000262565b508051620000e190600190602084019062000262565b5050825160208085019190912083518483012060e08290526101008190524660a0818152604080517f8b73c3c69bb8fe3d512ecc4cf759cc79239f7b179b0ffacaa9a75d522b39400f81880181905281830187905260608201869052608082019490945230818401528151808203909301835260c0019052805194019390932091935091906080523060601b60c0526101205250620001a792507f9f2df0fed2c77648de5860a4cc508cd0818c85b8b8a1ab4ceeef8d981c8956a69150839050620001ae565b5062000377565b620001ba8282620001be565b5050565b60008281526007602090815260408083206001600160a01b038516845290915290205460ff16620001ba5760008281526007602090815260408083206001600160a01b03851684529091529020805460ff191660011790556200021e3390565b6001600160a01b0316816001600160a01b0316837f2f8788117e7eff1d82e926ec794901d17c78024a50270940304540a733656f0d60405160405180910390a45050565b82805462000270906200033a565b90600052602060002090601f016020900481019282620002945760008555620002df565b82601f10620002af57805160ff1916838001178555620002df565b82800160010185558215620002df579182015b82811115620002df578251825591602001919060010190620002c2565b50620002ed929150620002f1565b5090565b5b80821115620002ed5760008155600101620002f2565b6000602082840312156200031b57600080fd5b81516001600160a01b03811681146200033357600080fd5b9392505050565b600181811c908216806200034f57607f821691505b602082108114156200037157634e487b7160e01b600052602260045260246000fd5b50919050565b60805160a05160c05160601c60e05161010051610120516129fe620003ca600039600061214b0152600061219a01526000612175015260006120ce015260006120f80152600061212201526129fe6000f3fe6080604052600436106101805760003560e01c80636352211e116100d6578063b88d4fde1161007f578063d547741f11610059578063d547741f14610460578063e322ad2b14610480578063e985e9c5146104a257600080fd5b8063b88d4fde146103ec578063c87b56dd1461040c578063d53913931461042c57600080fd5b806395d89b41116100b057806395d89b41146103a2578063a217fddf146103b7578063a22cb465146103cc57600080fd5b80636352211e1461031c57806370a082311461033c57806391d148541461035c57600080fd5b806323b872dd1161013857806336568abe1161011257806336568abe146102c75780633ccfd60b146102e757806342842e0e146102fc57600080fd5b806323b872dd14610257578063248a9ca3146102775780632f2ff15d146102a757600080fd5b8063081812fc11610169578063081812fc146101dc578063095ea7b3146102145780631c098e901461023657600080fd5b806301ffc9a71461018557806306fdde03146101ba575b600080fd5b34801561019157600080fd5b506101a56101a03660046123d6565b6104eb565b60405190151581526020015b60405180910390f35b3480156101c657600080fd5b506101cf61050b565b6040516101b1919061244b565b3480156101e857600080fd5b506101fc6101f736600461245e565b61059d565b6040516001600160a01b0390911681526020016101b1565b34801561022057600080fd5b5061023461022f366004612493565b610637565b005b610249610244366004612560565b610769565b6040519081526020016101b1565b34801561026357600080fd5b506102346102723660046125dc565b610914565b34801561028357600080fd5b5061024961029236600461245e565b60009081526007602052604090206001015490565b3480156102b357600080fd5b506102346102c2366004612618565b61099b565b3480156102d357600080fd5b506102346102e2366004612618565b6109c1565b3480156102f357600080fd5b50610234610a4d565b34801561030857600080fd5b506102346103173660046125dc565b610b33565b34801561032857600080fd5b506101fc61033736600461245e565b610b4e565b34801561034857600080fd5b50610249610357366004612644565b610bd9565b34801561036857600080fd5b506101a5610377366004612618565b60009182526007602090815260408084206001600160a01b0393909316845291905290205460ff1690565b3480156103ae57600080fd5b506101cf610c73565b3480156103c357600080fd5b50610249600081565b3480156103d857600080fd5b506102346103e736600461265f565b610c82565b3480156103f857600080fd5b5061023461040736600461269b565b610c8d565b34801561041857600080fd5b506101cf61042736600461245e565b610d1b565b34801561043857600080fd5b506102497f9f2df0fed2c77648de5860a4cc508cd0818c85b8b8a1ab4ceeef8d981c8956a681565b34801561046c57600080fd5b5061023461047b366004612618565b610eae565b34801561048c57600080fd5b5033600090815260086020526040902054610249565b3480156104ae57600080fd5b506101a56104bd366004612703565b6001600160a01b03918216600090815260056020908152604080832093909416825291909152205460ff1690565b60006104f682610ed4565b80610505575061050582610f6f565b92915050565b60606000805461051a9061272d565b80601f01602080910402602001604051908101604052809291908181526020018280546105469061272d565b80156105935780601f1061056857610100808354040283529160200191610593565b820191906000526020600020905b81548152906001019060200180831161057657829003601f168201915b5050505050905090565b6000818152600260205260408120546001600160a01b031661061b5760405162461bcd60e51b815260206004820152602c60248201527f4552433732313a20617070726f76656420717565727920666f72206e6f6e657860448201526b34b9ba32b73a103a37b5b2b760a11b60648201526084015b60405180910390fd5b506000908152600460205260409020546001600160a01b031690565b600061064282610b4e565b9050806001600160a01b0316836001600160a01b031614156106cc5760405162461bcd60e51b815260206004820152602160248201527f4552433732313a20617070726f76616c20746f2063757272656e74206f776e6560448201527f72000000000000000000000000000000000000000000000000000000000000006064820152608401610612565b336001600160a01b03821614806106e857506106e881336104bd565b61075a5760405162461bcd60e51b815260206004820152603860248201527f4552433732313a20617070726f76652063616c6c6572206973206e6f74206f7760448201527f6e6572206e6f7220617070726f76656420666f7220616c6c00000000000000006064820152608401610612565b6107648383610fad565b505050565b6000806107768484611028565b6001600160a01b03811660009081527fa4bfd7afe708e2e87e7f0e2ad9b4d545417e0f795f57b5c5ab5d799c565a04f4602052604090205490915060ff166108265760405162461bcd60e51b815260206004820152602160248201527f5369676e617475726520696e76616c6964206f7220756e617574686f72697a6560448201527f64000000000000000000000000000000000000000000000000000000000000006064820152608401610612565b836020013534101561087a5760405162461bcd60e51b815260206004820152601c60248201527f496e73756666696369656e742066756e647320746f2072656465656d000000006044820152606401610612565b610885818535611097565b6108d184356108976040870187612768565b8080601f0160208091040260200160405190810160405280939291908181526020018383808284376000920191909152506111e692505050565b6108dd8186863561128f565b6001600160a01b038116600090815260086020526040812080543492906109059084906127c5565b90915550509235949350505050565b61091e3382611469565b6109905760405162461bcd60e51b815260206004820152603160248201527f4552433732313a207472616e736665722063616c6c6572206973206e6f74206f60448201527f776e6572206e6f7220617070726f7665640000000000000000000000000000006064820152608401610612565b61076483838361128f565b6000828152600760205260409020600101546109b7813361155c565b61076483836115dc565b6001600160a01b0381163314610a3f5760405162461bcd60e51b815260206004820152602f60248201527f416363657373436f6e74726f6c3a2063616e206f6e6c792072656e6f756e636560448201527f20726f6c657320666f722073656c6600000000000000000000000000000000006064820152608401610612565b610a49828261167e565b5050565b3360009081527fa4bfd7afe708e2e87e7f0e2ad9b4d545417e0f795f57b5c5ab5d799c565a04f4602052604090205460ff16610af05760405162461bcd60e51b8152602060048201526024808201527f4f6e6c7920617574686f72697a6564206d696e746572732063616e207769746860448201527f64726177000000000000000000000000000000000000000000000000000000006064820152608401610612565b3360008181526008602052604080822080549083905590519091839183156108fc0291849190818181858888f19350505050158015610764573d6000803e3d6000fd5b61076483838360405180602001604052806000815250610c8d565b6000818152600260205260408120546001600160a01b0316806105055760405162461bcd60e51b815260206004820152602960248201527f4552433732313a206f776e657220717565727920666f72206e6f6e657869737460448201527f656e7420746f6b656e00000000000000000000000000000000000000000000006064820152608401610612565b60006001600160a01b038216610c575760405162461bcd60e51b815260206004820152602a60248201527f4552433732313a2062616c616e636520717565727920666f7220746865207a6560448201527f726f2061646472657373000000000000000000000000000000000000000000006064820152608401610612565b506001600160a01b031660009081526003602052604090205490565b60606001805461051a9061272d565b610a49338383611701565b610c973383611469565b610d095760405162461bcd60e51b815260206004820152603160248201527f4552433732313a207472616e736665722063616c6c6572206973206e6f74206f60448201527f776e6572206e6f7220617070726f7665640000000000000000000000000000006064820152608401610612565b610d15848484846117d0565b50505050565b6000818152600260205260409020546060906001600160a01b0316610da85760405162461bcd60e51b815260206004820152603160248201527f45524337323155524953746f726167653a2055524920717565727920666f722060448201527f6e6f6e6578697374656e7420746f6b656e0000000000000000000000000000006064820152608401610612565b60008281526006602052604081208054610dc19061272d565b80601f0160208091040260200160405190810160405280929190818152602001828054610ded9061272d565b8015610e3a5780601f10610e0f57610100808354040283529160200191610e3a565b820191906000526020600020905b815481529060010190602001808311610e1d57829003601f168201915b505050505090506000610e5860408051602081019091526000815290565b9050805160001415610e6b575092915050565b815115610e9d578082604051602001610e859291906127dd565b60405160208183030381529060405292505050919050565b610ea684611859565b949350505050565b600082815260076020526040902060010154610eca813361155c565b610764838361167e565b60006001600160e01b031982167f80ac58cd000000000000000000000000000000000000000000000000000000001480610f3757506001600160e01b031982167f5b5e139f00000000000000000000000000000000000000000000000000000000145b8061050557507f01ffc9a7000000000000000000000000000000000000000000000000000000006001600160e01b0319831614610505565b60006001600160e01b031982167f7965db0b000000000000000000000000000000000000000000000000000000001480610505575061050582610ed4565b6000818152600460205260409020805473ffffffffffffffffffffffffffffffffffffffff19166001600160a01b0384169081179091558190610fef82610b4e565b6001600160a01b03167f8c5be1e5ebec7d5bd14f71427d1e84f3dd0314c0f7b2291e5b200ac8c7c3b92560405160405180910390a45050565b6000806110348461194f565b9050610ea683611091836040517f19457468657265756d205369676e6564204d6573736167653a0a3332000000006020820152603c8101829052600090605c01604051602081830303815290604052805190602001209050919050565b906119e0565b6001600160a01b0382166110ed5760405162461bcd60e51b815260206004820181905260248201527f4552433732313a206d696e7420746f20746865207a65726f20616464726573736044820152606401610612565b6000818152600260205260409020546001600160a01b0316156111525760405162461bcd60e51b815260206004820152601c60248201527f4552433732313a20746f6b656e20616c7265616479206d696e746564000000006044820152606401610612565b6001600160a01b038216600090815260036020526040812080546001929061117b9084906127c5565b9091555050600081815260026020526040808220805473ffffffffffffffffffffffffffffffffffffffff19166001600160a01b03861690811790915590518392907fddf252ad1be2c89b69c2b068fc378daa952ba7f163c4a11628f55a4df523b3ef908290a45050565b6000828152600260205260409020546001600160a01b03166112705760405162461bcd60e51b815260206004820152602e60248201527f45524337323155524953746f726167653a2055524920736574206f66206e6f6e60448201527f6578697374656e7420746f6b656e0000000000000000000000000000000000006064820152608401610612565b6000828152600660209081526040909120825161076492840190612327565b826001600160a01b03166112a282610b4e565b6001600160a01b03161461131e5760405162461bcd60e51b815260206004820152602560248201527f4552433732313a207472616e736665722066726f6d20696e636f72726563742060448201527f6f776e65720000000000000000000000000000000000000000000000000000006064820152608401610612565b6001600160a01b0382166113995760405162461bcd60e51b8152602060048201526024808201527f4552433732313a207472616e7366657220746f20746865207a65726f2061646460448201527f72657373000000000000000000000000000000000000000000000000000000006064820152608401610612565b6113a4600082610fad565b6001600160a01b03831660009081526003602052604081208054600192906113cd90849061280c565b90915550506001600160a01b03821660009081526003602052604081208054600192906113fb9084906127c5565b9091555050600081815260026020526040808220805473ffffffffffffffffffffffffffffffffffffffff19166001600160a01b0386811691821790925591518493918716917fddf252ad1be2c89b69c2b068fc378daa952ba7f163c4a11628f55a4df523b3ef91a4505050565b6000818152600260205260408120546001600160a01b03166114e25760405162461bcd60e51b815260206004820152602c60248201527f4552433732313a206f70657261746f7220717565727920666f72206e6f6e657860448201526b34b9ba32b73a103a37b5b2b760a11b6064820152608401610612565b60006114ed83610b4e565b9050806001600160a01b0316846001600160a01b031614806115285750836001600160a01b031661151d8461059d565b6001600160a01b0316145b80610ea657506001600160a01b0380821660009081526005602090815260408083209388168352929052205460ff16610ea6565b60008281526007602090815260408083206001600160a01b038516845290915290205460ff16610a495761159a816001600160a01b03166014611a04565b6115a5836020611a04565b6040516020016115b6929190612823565b60408051601f198184030181529082905262461bcd60e51b82526106129160040161244b565b60008281526007602090815260408083206001600160a01b038516845290915290205460ff16610a495760008281526007602090815260408083206001600160a01b03851684529091529020805460ff1916600117905561163a3390565b6001600160a01b0316816001600160a01b0316837f2f8788117e7eff1d82e926ec794901d17c78024a50270940304540a733656f0d60405160405180910390a45050565b60008281526007602090815260408083206001600160a01b038516845290915290205460ff1615610a495760008281526007602090815260408083206001600160a01b0385168085529252808320805460ff1916905551339285917ff6391f5c32d9c69d2a47ea670b442974b53935d1edc7fd64eb21e047a839171b9190a45050565b816001600160a01b0316836001600160a01b031614156117635760405162461bcd60e51b815260206004820152601960248201527f4552433732313a20617070726f766520746f2063616c6c6572000000000000006044820152606401610612565b6001600160a01b03838116600081815260056020908152604080832094871680845294825291829020805460ff191686151590811790915591519182527f17307eab39ab6107e8899845ad3d59bd9653f200f220920489ca2b5937696c31910160405180910390a3505050565b6117db84848461128f565b6117e784848484611bc9565b610d155760405162461bcd60e51b815260206004820152603260248201527f4552433732313a207472616e7366657220746f206e6f6e20455243373231526560448201527f63656976657220696d706c656d656e74657200000000000000000000000000006064820152608401610612565b6000818152600260205260409020546060906001600160a01b03166118e65760405162461bcd60e51b815260206004820152602f60248201527f4552433732314d657461646174613a2055524920717565727920666f72206e6f60448201527f6e6578697374656e7420746f6b656e00000000000000000000000000000000006064820152608401610612565b60006118fd60408051602081019091526000815290565b9050600081511161191d5760405180602001604052806000815250611948565b8061192784611d2c565b6040516020016119389291906127dd565b6040516020818303038152906040525b9392505050565b60006105057f6316f9ddd4d59a364f3b95c26bab9d392c3380ace0fff15e91ed76f0d8bcd15a833560208501356119896040870187612768565b6040516119979291906128a4565b6040519081900381206119c59493929160200193845260208401929092526040830152606082015260800190565b60405160208183030381529060405280519060200120611e2a565b60008060006119ef8585611e93565b915091506119fc81611f03565b509392505050565b60606000611a138360026128b4565b611a1e9060026127c5565b67ffffffffffffffff811115611a3657611a366124bd565b6040519080825280601f01601f191660200182016040528015611a60576020820181803683370190505b509050600360fc1b81600081518110611a7b57611a7b6128d3565b60200101906001600160f81b031916908160001a9053507f780000000000000000000000000000000000000000000000000000000000000081600181518110611ac657611ac66128d3565b60200101906001600160f81b031916908160001a9053506000611aea8460026128b4565b611af59060016127c5565b90505b6001811115611b7a577f303132333435363738396162636465660000000000000000000000000000000085600f1660108110611b3657611b366128d3565b1a60f81b828281518110611b4c57611b4c6128d3565b60200101906001600160f81b031916908160001a90535060049490941c93611b73816128e9565b9050611af8565b5083156119485760405162461bcd60e51b815260206004820181905260248201527f537472696e67733a20686578206c656e67746820696e73756666696369656e746044820152606401610612565b60006001600160a01b0384163b15611d2157604051630a85bd0160e11b81526001600160a01b0385169063150b7a0290611c0d903390899088908890600401612900565b602060405180830381600087803b158015611c2757600080fd5b505af1925050508015611c57575060408051601f3d908101601f19168201909252611c549181019061293c565b60015b611d07573d808015611c85576040519150601f19603f3d011682016040523d82523d6000602084013e611c8a565b606091505b508051611cff5760405162461bcd60e51b815260206004820152603260248201527f4552433732313a207472616e7366657220746f206e6f6e20455243373231526560448201527f63656976657220696d706c656d656e74657200000000000000000000000000006064820152608401610612565b805181602001fd5b6001600160e01b031916630a85bd0160e11b149050610ea6565b506001949350505050565b606081611d505750506040805180820190915260018152600360fc1b602082015290565b8160005b8115611d7a5780611d6481612959565b9150611d739050600a8361298a565b9150611d54565b60008167ffffffffffffffff811115611d9557611d956124bd565b6040519080825280601f01601f191660200182016040528015611dbf576020820181803683370190505b5090505b8415610ea657611dd460018361280c565b9150611de1600a8661299e565b611dec9060306127c5565b60f81b818381518110611e0157611e016128d3565b60200101906001600160f81b031916908160001a905350611e23600a8661298a565b9450611dc3565b6000610505611e376120c1565b836040517f19010000000000000000000000000000000000000000000000000000000000006020820152602281018390526042810182905260009060620160405160208183030381529060405280519060200120905092915050565b600080825160411415611eca5760208301516040840151606085015160001a611ebe878285856121e8565b94509450505050611efc565b825160401415611ef45760208301516040840151611ee98683836122d5565b935093505050611efc565b506000905060025b9250929050565b6000816004811115611f1757611f176129b2565b1415611f205750565b6001816004811115611f3457611f346129b2565b1415611f825760405162461bcd60e51b815260206004820152601860248201527f45434453413a20696e76616c6964207369676e617475726500000000000000006044820152606401610612565b6002816004811115611f9657611f966129b2565b1415611fe45760405162461bcd60e51b815260206004820152601f60248201527f45434453413a20696e76616c6964207369676e6174757265206c656e677468006044820152606401610612565b6003816004811115611ff857611ff86129b2565b14156120515760405162461bcd60e51b815260206004820152602260248201527f45434453413a20696e76616c6964207369676e6174757265202773272076616c604482015261756560f01b6064820152608401610612565b6004816004811115612065576120656129b2565b14156120be5760405162461bcd60e51b815260206004820152602260248201527f45434453413a20696e76616c6964207369676e6174757265202776272076616c604482015261756560f01b6064820152608401610612565b50565b6000306001600160a01b037f00000000000000000000000000000000000000000000000000000000000000001614801561211a57507f000000000000000000000000000000000000000000000000000000000000000046145b1561214457507f000000000000000000000000000000000000000000000000000000000000000090565b50604080517f00000000000000000000000000000000000000000000000000000000000000006020808301919091527f0000000000000000000000000000000000000000000000000000000000000000828401527f000000000000000000000000000000000000000000000000000000000000000060608301524660808301523060a0808401919091528351808403909101815260c0909201909252805191012090565b6000807f7fffffffffffffffffffffffffffffff5d576e7357a4501ddfe92f46681b20a083111561221f57506000905060036122cc565b8460ff16601b1415801561223757508460ff16601c14155b1561224857506000905060046122cc565b6040805160008082526020820180845289905260ff881692820192909252606081018690526080810185905260019060a0016020604051602081039080840390855afa15801561229c573d6000803e3d6000fd5b5050604051601f1901519150506001600160a01b0381166122c5576000600192509250506122cc565b9150600090505b94509492505050565b6000807f7fffffffffffffffffffffffffffffffffffffffffffffffffffffffffffffff83168161230b60ff86901c601b6127c5565b9050612319878288856121e8565b935093505050935093915050565b8280546123339061272d565b90600052602060002090601f016020900481019282612355576000855561239b565b82601f1061236e57805160ff191683800117855561239b565b8280016001018555821561239b579182015b8281111561239b578251825591602001919060010190612380565b506123a79291506123ab565b5090565b5b808211156123a757600081556001016123ac565b6001600160e01b0319811681146120be57600080fd5b6000602082840312156123e857600080fd5b8135611948816123c0565b60005b8381101561240e5781810151838201526020016123f6565b83811115610d155750506000910152565b600081518084526124378160208601602086016123f3565b601f01601f19169290920160200192915050565b602081526000611948602083018461241f565b60006020828403121561247057600080fd5b5035919050565b80356001600160a01b038116811461248e57600080fd5b919050565b600080604083850312156124a657600080fd5b6124af83612477565b946020939093013593505050565b634e487b7160e01b600052604160045260246000fd5b600082601f8301126124e457600080fd5b813567ffffffffffffffff808211156124ff576124ff6124bd565b604051601f8301601f19908116603f01168101908282118183101715612527576125276124bd565b8160405283815286602085880101111561254057600080fd5b836020870160208301376000602085830101528094505050505092915050565b60008060006060848603121561257557600080fd5b61257e84612477565b9250602084013567ffffffffffffffff8082111561259b57600080fd5b90850190606082880312156125af57600080fd5b909250604085013590808211156125c557600080fd5b506125d2868287016124d3565b9150509250925092565b6000806000606084860312156125f157600080fd5b6125fa84612477565b925061260860208501612477565b9150604084013590509250925092565b6000806040838503121561262b57600080fd5b8235915061263b60208401612477565b90509250929050565b60006020828403121561265657600080fd5b61194882612477565b6000806040838503121561267257600080fd5b61267b83612477565b91506020830135801515811461269057600080fd5b809150509250929050565b600080600080608085870312156126b157600080fd5b6126ba85612477565b93506126c860208601612477565b925060408501359150606085013567ffffffffffffffff8111156126eb57600080fd5b6126f7878288016124d3565b91505092959194509250565b6000806040838503121561271657600080fd5b61271f83612477565b915061263b60208401612477565b600181811c9082168061274157607f821691505b6020821081141561276257634e487b7160e01b600052602260045260246000fd5b50919050565b6000808335601e1984360301811261277f57600080fd5b83018035915067ffffffffffffffff82111561279a57600080fd5b602001915036819003821315611efc57600080fd5b634e487b7160e01b600052601160045260246000fd5b600082198211156127d8576127d86127af565b500190565b600083516127ef8184602088016123f3565b8351908301906128038183602088016123f3565b01949350505050565b60008282101561281e5761281e6127af565b500390565b7f416363657373436f6e74726f6c3a206163636f756e742000000000000000000081526000835161285b8160178501602088016123f3565b7f206973206d697373696e6720726f6c652000000000000000000000000000000060179184019182015283516128988160288401602088016123f3565b01602801949350505050565b8183823760009101908152919050565b60008160001904831182151516156128ce576128ce6127af565b500290565b634e487b7160e01b600052603260045260246000fd5b6000816128f8576128f86127af565b506000190190565b60006001600160a01b03808716835280861660208401525083604083015260806060830152612932608083018461241f565b9695505050505050565b60006020828403121561294e57600080fd5b8151611948816123c0565b600060001982141561296d5761296d6127af565b5060010190565b634e487b7160e01b600052601260045260246000fd5b60008261299957612999612974565b500490565b6000826129ad576129ad612974565b500690565b634e487b7160e01b600052602160045260246000fdfea2646970667358221220cd0589ba489e65d09ce444dd0d976ef3b83e5332a121ef8fef61e4d58688805864736f6c63430008080033",
  "linkReferences": {},
  "deployedLinkReferences": {}
}