{
  "_format": "hh-sol-artifact-1",
  "contractName": "StokeNFT",
  "sourceName": "contracts/StokeNFT.sol",
  "abi": [
    {
      "inputs": [],
      "stateMutability": "nonpayable",
      "type": "constructor"
    },
    {
      "anonymous": false,
      "inputs": [
        {
          "indexed": true,
          "internalType": "address",
          "name": "owner",
          "type": "address"
        },
        {
          "indexed": true,
          "internalType": "address",
          "name": "approved",
          "type": "address"
        },
        {
          "indexed": true,
          "internalType": "uint256",
          "name": "tokenId",
          "type": "uint256"
        }
      ],
      "name": "Approval",
      "type": "event"
    },
    {
      "anonymous": false,
      "inputs": [
        {
          "indexed": true,
          "internalType": "address",
          "name": "owner",
          "type": "address"
        },
        {
          "indexed": true,
          "internalType": "address",
          "name": "operator",
          "type": "address"
        },
        {
          "indexed": false,
          "internalType": "bool",
          "name": "approved",
          "type": "bool"
        }
      ],
      "name": "ApprovalForAll",
      "type": "event"
    },
    {
      "anonymous": false,
      "inputs": [
        {
          "indexed": true,
          "internalType": "address",
          "name": "previousOwner",
          "type": "address"
        },
        {
          "indexed": true,
          "internalType": "address",
          "name": "newOwner",
          "type": "address"
        }
      ],
      "name": "OwnershipTransferred",
      "type": "event"
    },
    {
      "anonymous": false,
      "inputs": [
        {
          "indexed": true,
          "internalType": "address",
          "name": "from",
          "type": "address"
        },
        {
          "indexed": true,
          "internalType": "address",
          "name": "to",
          "type": "address"
        },
        {
          "indexed": true,
          "internalType": "uint256",
          "name": "tokenId",
          "type": "uint256"
        }
      ],
      "name": "Transfer",
      "type": "event"
    },
    {
      "inputs": [
        {
          "internalType": "address",
          "name": "to",
          "type": "address"
        },
        {
          "internalType": "uint256",
          "name": "tokenId",
          "type": "uint256"
        }
      ],
      "name": "approve",
      "outputs": [],
      "stateMutability": "nonpayable",
      "type": "function"
    },
    {
      "inputs": [
        {
          "internalType": "address",
          "name": "owner",
          "type": "address"
        }
      ],
      "name": "balanceOf",
      "outputs": [
        {
          "internalType": "uint256",
          "name": "",
          "type": "uint256"
        }
      ],
      "stateMutability": "view",
      "type": "function"
    },
    {
      "inputs": [
        {
          "internalType": "string",
          "name": "tokenURI",
          "type": "string"
        }
      ],
      "name": "createToken",
      "outputs": [
        {
          "internalType": "uint256",
          "name": "",
          "type": "uint256"
        }
      ],
      "stateMutability": "nonpayable",
      "type": "function"
    },
    {
      "inputs": [
        {
          "internalType": "uint256",
          "name": "tokenId",
          "type": "uint256"
        }
      ],
      "name": "getApproved",
      "outputs": [
        {
          "internalType": "address",
          "name": "",
          "type": "address"
        }
      ],
      "stateMutability": "view",
      "type": "function"
    },
    {
      "inputs": [
        {
          "internalType": "address",
          "name": "owner",
          "type": "address"
        },
        {
          "internalType": "address",
          "name": "operator",
          "type": "address"
        }
      ],
      "name": "isApprovedForAll",
      "outputs": [
        {
          "internalType": "bool",
          "name": "",
          "type": "bool"
        }
      ],
      "stateMutability": "view",
      "type": "function"
    },
    {
      "inputs": [],
      "name": "name",
      "outputs": [
        {
          "internalType": "string",
          "name": "",
          "type": "string"
        }
      ],
      "stateMutability": "view",
      "type": "function"
    },
    {
      "inputs": [],
      "name": "owner",
      "outputs": [
        {
          "internalType": "address",
          "name": "",
          "type": "address"
        }
      ],
      "stateMutability": "view",
      "type": "function"
    },
    {
      "inputs": [
        {
          "internalType": "uint256",
          "name": "tokenId",
          "type": "uint256"
        }
      ],
      "name": "ownerOf",
      "outputs": [
        {
          "internalType": "address",
          "name": "",
          "type": "address"
        }
      ],
      "stateMutability": "view",
      "type": "function"
    },
    {
      "inputs": [],
      "name": "renounceOwnership",
      "outputs": [],
      "stateMutability": "nonpayable",
      "type": "function"
    },
    {
      "inputs": [
        {
          "internalType": "address",
          "name": "from",
          "type": "address"
        },
        {
          "internalType": "address",
          "name": "to",
          "type": "address"
        },
        {
          "internalType": "uint256",
          "name": "tokenId",
          "type": "uint256"
        }
      ],
      "name": "safeTransferFrom",
      "outputs": [],
      "stateMutability": "nonpayable",
      "type": "function"
    },
    {
      "inputs": [
        {
          "internalType": "address",
          "name": "from",
          "type": "address"
        },
        {
          "internalType": "address",
          "name": "to",
          "type": "address"
        },
        {
          "internalType": "uint256",
          "name": "tokenId",
          "type": "uint256"
        },
        {
          "internalType": "bytes",
          "name": "_data",
          "type": "bytes"
        }
      ],
      "name": "safeTransferFrom",
      "outputs": [],
      "stateMutability": "nonpayable",
      "type": "function"
    },
    {
      "inputs": [
        {
          "internalType": "address",
          "name": "operator",
          "type": "address"
        },
        {
          "internalType": "bool",
          "name": "approved",
          "type": "bool"
        }
      ],
      "name": "setApprovalForAll",
      "outputs": [],
      "stateMutability": "nonpayable",
      "type": "function"
    },
    {
      "inputs": [
        {
          "internalType": "bytes4",
          "name": "interfaceId",
          "type": "bytes4"
        }
      ],
      "name": "supportsInterface",
      "outputs": [
        {
          "internalType": "bool",
          "name": "",
          "type": "bool"
        }
      ],
      "stateMutability": "view",
      "type": "function"
    },
    {
      "inputs": [],
      "name": "symbol",
      "outputs": [
        {
          "internalType": "string",
          "name": "",
          "type": "string"
        }
      ],
      "stateMutability": "view",
      "type": "function"
    },
    {
      "inputs": [
        {
          "internalType": "uint256",
          "name": "tokenId",
          "type": "uint256"
        }
      ],
      "name": "tokenURI",
      "outputs": [
        {
          "internalType": "string",
          "name": "",
          "type": "string"
        }
      ],
      "stateMutability": "view",
      "type": "function"
    },
    {
      "inputs": [
        {
          "internalType": "address",
          "name": "from",
          "type": "address"
        },
        {
          "internalType": "address",
          "name": "to",
          "type": "address"
        },
        {
          "internalType": "uint256",
          "name": "tokenId",
          "type": "uint256"
        }
      ],
      "name": "transferFrom",
      "outputs": [],
      "stateMutability": "nonpayable",
      "type": "function"
    },
    {
      "inputs": [
        {
          "internalType": "address",
          "name": "newOwner",
          "type": "address"
        }
      ],
      "name": "transferOwnership",
      "outputs": [],
      "stateMutability": "nonpayable",
      "type": "function"
    }
  ],
  "bytecode": "0x60806040523480156200001157600080fd5b50604080518082018252600881526714dd1bdad953919560c21b60208083019182528351808501909452600384526213919560ea1b9084015281519192916200005d91600091620000ec565b50805162000073906001906020840190620000ec565b505050620000906200008a6200009660201b60201c565b6200009a565b620001cf565b3390565b600780546001600160a01b038381166001600160a01b0319831681179093556040519116919082907f8be0079c531659141344cd1fd0a4f28419497f9722a3daafe3b4186f6b6457e090600090a35050565b828054620000fa9062000192565b90600052602060002090601f0160209004810192826200011e576000855562000169565b82601f106200013957805160ff191683800117855562000169565b8280016001018555821562000169579182015b82811115620001695782518255916020019190600101906200014c565b50620001779291506200017b565b5090565b5b808211156200017757600081556001016200017c565b600181811c90821680620001a757607f821691505b60208210811415620001c957634e487b7160e01b600052602260045260246000fd5b50919050565b611b0980620001df6000396000f3fe608060405234801561001057600080fd5b506004361061011b5760003560e01c806370a08231116100b2578063a22cb46511610081578063c87b56dd11610066578063c87b56dd14610251578063e985e9c514610264578063f2fde38b146102a057600080fd5b8063a22cb4651461022b578063b88d4fde1461023e57600080fd5b806370a08231146101f7578063715018a61461020a5780638da5cb5b1461021257806395d89b411461022357600080fd5b806323b872dd116100ee57806323b872dd1461019d57806342842e0e146101b057806345576f94146101c35780636352211e146101e457600080fd5b806301ffc9a71461012057806306fdde0314610148578063081812fc1461015d578063095ea7b314610188575b600080fd5b61013361012e36600461165e565b6102b3565b60405190151581526020015b60405180910390f35b610150610350565b60405161013f91906116d3565b61017061016b3660046116e6565b6103e2565b6040516001600160a01b03909116815260200161013f565b61019b61019636600461171b565b61047c565b005b61019b6101ab366004611745565b6105ae565b61019b6101be366004611745565b610635565b6101d66101d136600461180d565b610650565b60405190815260200161013f565b6101706101f23660046116e6565b610681565b6101d6610205366004611856565b61070c565b61019b6107a6565b6007546001600160a01b0316610170565b61015061080c565b61019b610239366004611871565b61081b565b61019b61024c3660046118ad565b61082a565b61015061025f3660046116e6565b6108b8565b610133610272366004611929565b6001600160a01b03918216600090815260056020908152604080832093909416825291909152205460ff1690565b61019b6102ae366004611856565b610a4b565b60006001600160e01b031982167f80ac58cd00000000000000000000000000000000000000000000000000000000148061031657506001600160e01b031982167f5b5e139f00000000000000000000000000000000000000000000000000000000145b8061034a57507f01ffc9a7000000000000000000000000000000000000000000000000000000006001600160e01b03198316145b92915050565b60606000805461035f9061195c565b80601f016020809104026020016040519081016040528092919081815260200182805461038b9061195c565b80156103d85780601f106103ad576101008083540402835291602001916103d8565b820191906000526020600020905b8154815290600101906020018083116103bb57829003601f168201915b5050505050905090565b6000818152600260205260408120546001600160a01b03166104605760405162461bcd60e51b815260206004820152602c60248201527f4552433732313a20617070726f76656420717565727920666f72206e6f6e657860448201526b34b9ba32b73a103a37b5b2b760a11b60648201526084015b60405180910390fd5b506000908152600460205260409020546001600160a01b031690565b600061048782610681565b9050806001600160a01b0316836001600160a01b031614156105115760405162461bcd60e51b815260206004820152602160248201527f4552433732313a20617070726f76616c20746f2063757272656e74206f776e6560448201527f72000000000000000000000000000000000000000000000000000000000000006064820152608401610457565b336001600160a01b038216148061052d575061052d8133610272565b61059f5760405162461bcd60e51b815260206004820152603860248201527f4552433732313a20617070726f76652063616c6c6572206973206e6f74206f7760448201527f6e6572206e6f7220617070726f76656420666f7220616c6c00000000000000006064820152608401610457565b6105a98383610b2d565b505050565b6105b83382610ba8565b61062a5760405162461bcd60e51b815260206004820152603160248201527f4552433732313a207472616e736665722063616c6c6572206973206e6f74206f60448201527f776e6572206e6f7220617070726f7665640000000000000000000000000000006064820152608401610457565b6105a9838383610c9b565b6105a98383836040518060200160405280600081525061082a565b6000610660600880546001019055565b600061066b60085490565b90506106773382610e75565b61034a8184610fc4565b6000818152600260205260408120546001600160a01b03168061034a5760405162461bcd60e51b815260206004820152602960248201527f4552433732313a206f776e657220717565727920666f72206e6f6e657869737460448201527f656e7420746f6b656e00000000000000000000000000000000000000000000006064820152608401610457565b60006001600160a01b03821661078a5760405162461bcd60e51b815260206004820152602a60248201527f4552433732313a2062616c616e636520717565727920666f7220746865207a6560448201527f726f2061646472657373000000000000000000000000000000000000000000006064820152608401610457565b506001600160a01b031660009081526003602052604090205490565b6007546001600160a01b031633146108005760405162461bcd60e51b815260206004820181905260248201527f4f776e61626c653a2063616c6c6572206973206e6f7420746865206f776e65726044820152606401610457565b61080a600061106d565b565b60606001805461035f9061195c565b6108263383836110cc565b5050565b6108343383610ba8565b6108a65760405162461bcd60e51b815260206004820152603160248201527f4552433732313a207472616e736665722063616c6c6572206973206e6f74206f60448201527f776e6572206e6f7220617070726f7665640000000000000000000000000000006064820152608401610457565b6108b28484848461119b565b50505050565b6000818152600260205260409020546060906001600160a01b03166109455760405162461bcd60e51b815260206004820152603160248201527f45524337323155524953746f726167653a2055524920717565727920666f722060448201527f6e6f6e6578697374656e7420746f6b656e0000000000000000000000000000006064820152608401610457565b6000828152600660205260408120805461095e9061195c565b80601f016020809104026020016040519081016040528092919081815260200182805461098a9061195c565b80156109d75780601f106109ac576101008083540402835291602001916109d7565b820191906000526020600020905b8154815290600101906020018083116109ba57829003601f168201915b5050505050905060006109f560408051602081019091526000815290565b9050805160001415610a08575092915050565b815115610a3a578082604051602001610a22929190611997565b60405160208183030381529060405292505050919050565b610a4384611224565b949350505050565b6007546001600160a01b03163314610aa55760405162461bcd60e51b815260206004820181905260248201527f4f776e61626c653a2063616c6c6572206973206e6f7420746865206f776e65726044820152606401610457565b6001600160a01b038116610b215760405162461bcd60e51b815260206004820152602660248201527f4f776e61626c653a206e6577206f776e657220697320746865207a65726f206160448201527f64647265737300000000000000000000000000000000000000000000000000006064820152608401610457565b610b2a8161106d565b50565b6000818152600460205260409020805473ffffffffffffffffffffffffffffffffffffffff19166001600160a01b0384169081179091558190610b6f82610681565b6001600160a01b03167f8c5be1e5ebec7d5bd14f71427d1e84f3dd0314c0f7b2291e5b200ac8c7c3b92560405160405180910390a45050565b6000818152600260205260408120546001600160a01b0316610c215760405162461bcd60e51b815260206004820152602c60248201527f4552433732313a206f70657261746f7220717565727920666f72206e6f6e657860448201526b34b9ba32b73a103a37b5b2b760a11b6064820152608401610457565b6000610c2c83610681565b9050806001600160a01b0316846001600160a01b03161480610c675750836001600160a01b0316610c5c846103e2565b6001600160a01b0316145b80610a4357506001600160a01b0380821660009081526005602090815260408083209388168352929052205460ff16610a43565b826001600160a01b0316610cae82610681565b6001600160a01b031614610d2a5760405162461bcd60e51b815260206004820152602560248201527f4552433732313a207472616e736665722066726f6d20696e636f72726563742060448201527f6f776e65720000000000000000000000000000000000000000000000000000006064820152608401610457565b6001600160a01b038216610da55760405162461bcd60e51b8152602060048201526024808201527f4552433732313a207472616e7366657220746f20746865207a65726f2061646460448201527f72657373000000000000000000000000000000000000000000000000000000006064820152608401610457565b610db0600082610b2d565b6001600160a01b0383166000908152600360205260408120805460019290610dd99084906119dc565b90915550506001600160a01b0382166000908152600360205260408120805460019290610e079084906119f3565b9091555050600081815260026020526040808220805473ffffffffffffffffffffffffffffffffffffffff19166001600160a01b0386811691821790925591518493918716917fddf252ad1be2c89b69c2b068fc378daa952ba7f163c4a11628f55a4df523b3ef91a4505050565b6001600160a01b038216610ecb5760405162461bcd60e51b815260206004820181905260248201527f4552433732313a206d696e7420746f20746865207a65726f20616464726573736044820152606401610457565b6000818152600260205260409020546001600160a01b031615610f305760405162461bcd60e51b815260206004820152601c60248201527f4552433732313a20746f6b656e20616c7265616479206d696e746564000000006044820152606401610457565b6001600160a01b0382166000908152600360205260408120805460019290610f599084906119f3565b9091555050600081815260026020526040808220805473ffffffffffffffffffffffffffffffffffffffff19166001600160a01b03861690811790915590518392907fddf252ad1be2c89b69c2b068fc378daa952ba7f163c4a11628f55a4df523b3ef908290a45050565b6000828152600260205260409020546001600160a01b031661104e5760405162461bcd60e51b815260206004820152602e60248201527f45524337323155524953746f726167653a2055524920736574206f66206e6f6e60448201527f6578697374656e7420746f6b656e0000000000000000000000000000000000006064820152608401610457565b600082815260066020908152604090912082516105a9928401906115af565b600780546001600160a01b0383811673ffffffffffffffffffffffffffffffffffffffff19831681179093556040519116919082907f8be0079c531659141344cd1fd0a4f28419497f9722a3daafe3b4186f6b6457e090600090a35050565b816001600160a01b0316836001600160a01b0316141561112e5760405162461bcd60e51b815260206004820152601960248201527f4552433732313a20617070726f766520746f2063616c6c6572000000000000006044820152606401610457565b6001600160a01b03838116600081815260056020908152604080832094871680845294825291829020805460ff191686151590811790915591519182527f17307eab39ab6107e8899845ad3d59bd9653f200f220920489ca2b5937696c31910160405180910390a3505050565b6111a6848484610c9b565b6111b28484848461131a565b6108b25760405162461bcd60e51b815260206004820152603260248201527f4552433732313a207472616e7366657220746f206e6f6e20455243373231526560448201527f63656976657220696d706c656d656e74657200000000000000000000000000006064820152608401610457565b6000818152600260205260409020546060906001600160a01b03166112b15760405162461bcd60e51b815260206004820152602f60248201527f4552433732314d657461646174613a2055524920717565727920666f72206e6f60448201527f6e6578697374656e7420746f6b656e00000000000000000000000000000000006064820152608401610457565b60006112c860408051602081019091526000815290565b905060008151116112e85760405180602001604052806000815250611313565b806112f28461147d565b604051602001611303929190611997565b6040516020818303038152906040525b9392505050565b60006001600160a01b0384163b1561147257604051630a85bd0160e11b81526001600160a01b0385169063150b7a029061135e903390899088908890600401611a0b565b602060405180830381600087803b15801561137857600080fd5b505af19250505080156113a8575060408051601f3d908101601f191682019092526113a591810190611a47565b60015b611458573d8080156113d6576040519150601f19603f3d011682016040523d82523d6000602084013e6113db565b606091505b5080516114505760405162461bcd60e51b815260206004820152603260248201527f4552433732313a207472616e7366657220746f206e6f6e20455243373231526560448201527f63656976657220696d706c656d656e74657200000000000000000000000000006064820152608401610457565b805181602001fd5b6001600160e01b031916630a85bd0160e11b149050610a43565b506001949350505050565b6060816114bd57505060408051808201909152600181527f3000000000000000000000000000000000000000000000000000000000000000602082015290565b8160005b81156114e757806114d181611a64565b91506114e09050600a83611a95565b91506114c1565b60008167ffffffffffffffff81111561150257611502611781565b6040519080825280601f01601f19166020018201604052801561152c576020820181803683370190505b5090505b8415610a43576115416001836119dc565b915061154e600a86611aa9565b6115599060306119f3565b60f81b81838151811061156e5761156e611abd565b60200101907effffffffffffffffffffffffffffffffffffffffffffffffffffffffffffff1916908160001a9053506115a8600a86611a95565b9450611530565b8280546115bb9061195c565b90600052602060002090601f0160209004810192826115dd5760008555611623565b82601f106115f657805160ff1916838001178555611623565b82800160010185558215611623579182015b82811115611623578251825591602001919060010190611608565b5061162f929150611633565b5090565b5b8082111561162f5760008155600101611634565b6001600160e01b031981168114610b2a57600080fd5b60006020828403121561167057600080fd5b813561131381611648565b60005b8381101561169657818101518382015260200161167e565b838111156108b25750506000910152565b600081518084526116bf81602086016020860161167b565b601f01601f19169290920160200192915050565b60208152600061131360208301846116a7565b6000602082840312156116f857600080fd5b5035919050565b80356001600160a01b038116811461171657600080fd5b919050565b6000806040838503121561172e57600080fd5b611737836116ff565b946020939093013593505050565b60008060006060848603121561175a57600080fd5b611763846116ff565b9250611771602085016116ff565b9150604084013590509250925092565b634e487b7160e01b600052604160045260246000fd5b600067ffffffffffffffff808411156117b2576117b2611781565b604051601f8501601f19908116603f011681019082821181831017156117da576117da611781565b816040528093508581528686860111156117f357600080fd5b858560208301376000602087830101525050509392505050565b60006020828403121561181f57600080fd5b813567ffffffffffffffff81111561183657600080fd5b8201601f8101841361184757600080fd5b610a4384823560208401611797565b60006020828403121561186857600080fd5b611313826116ff565b6000806040838503121561188457600080fd5b61188d836116ff565b9150602083013580151581146118a257600080fd5b809150509250929050565b600080600080608085870312156118c357600080fd5b6118cc856116ff565b93506118da602086016116ff565b925060408501359150606085013567ffffffffffffffff8111156118fd57600080fd5b8501601f8101871361190e57600080fd5b61191d87823560208401611797565b91505092959194509250565b6000806040838503121561193c57600080fd5b611945836116ff565b9150611953602084016116ff565b90509250929050565b600181811c9082168061197057607f821691505b6020821081141561199157634e487b7160e01b600052602260045260246000fd5b50919050565b600083516119a981846020880161167b565b8351908301906119bd81836020880161167b565b01949350505050565b634e487b7160e01b600052601160045260246000fd5b6000828210156119ee576119ee6119c6565b500390565b60008219821115611a0657611a066119c6565b500190565b60006001600160a01b03808716835280861660208401525083604083015260806060830152611a3d60808301846116a7565b9695505050505050565b600060208284031215611a5957600080fd5b815161131381611648565b6000600019821415611a7857611a786119c6565b5060010190565b634e487b7160e01b600052601260045260246000fd5b600082611aa457611aa4611a7f565b500490565b600082611ab857611ab8611a7f565b500690565b634e487b7160e01b600052603260045260246000fdfea2646970667358221220d6708e1f89741945ab7f6eede68b8ba3b2201606816552f05b4cc212b674e69264736f6c63430008080033",
  "linkReferences": {},
  "deployedLinkReferences": {}
}